:020000040800F2
:1000000000800120E92C0008492A00084F2A000836
:10001000552A00085B2A0008612A00080000000039
:10002000000000000000000000000000672A000837
:10003000752A000800000000832A0008912A0008A1
:10004000392D0008392D0008392D0008392D0008F8
:10005000392D0008392D0008392D0008392D0008E8
:10006000392D0008392D0008392D00089D2A000877
:10007000392D0008392D0008392D0008392D0008C8
:10008000392D0008392D0008392D0008392D0008B8
:10009000392D0008392D0008392D0008392D0008A8
:1000A000392D0008392D0008392D0008392D000898
:1000B000392D0008B12A0008C52A0008392D00088A
:1000C000392D0008392D0008392D0008392D000878
:1000D000392D0008392D0008392D0008392D000868
:1000E000D92A0008392D0008392D0008392D0008BB
:1000F000392D0008392D0008392D0008392D000848
:10010000392D0008392D0008392D0008392D000837
:10011000392D0008392D0008392D0008392D000827
:10012000392D0008392D0008F92A0008392D00085A
:10013000392D0008392D0008392D0008392D000807
:10014000392D0008392D0008392D0008392D0008F7
:10015000392D0008392D0008392D0008392D0008E7
:10016000392D0008392D0008392D0008392D0008D7
:10017000392D0008392D0008392D00080000000035
:08018000392D0008392D00089B
:1001900010B5054C237833B9044B13B10448AFF3C1
:1001A00000800123237010BDE80100200000000042
:1001B00060BC000808B5034B1BB103490348AFF30B
:1001C000008008BD00000000EC01002060BC0008B9
:1001D000034613F8012B002AFBD1181A0138704787
:1001E00001F0FF01102A2BDB10F0070F08D010F8E8
:1001F000013B013A8B422DD010F0070F42B3F6D1EC
:10020000F0B441EA012141EA014122F007047FF004
:1002100000070023F0E80256083C85EA010586EA5B
:10022000010685FA47F5A3FA87F586FA47F6A5FA97
:1002300087F68EB9EED1F0BC01F0FF0102F00702A3
:1002400032B110F8013B013A83EA010313B1F8D14E
:100250000020704701387047002D06BF354603382F
:10026000073815F0010F07D1013015F4807F02BF68
:10027000013015F4C03F0130F0BC0138704700BFB9
:1002800081F0004102E000BF83F0004330B54FEA47
:1002900041044FEA430594EA050F08BF90EA020FB4
:1002A0001FBF54EA000C55EA020C7FEA645C7FEA47
:1002B000655C00F0E2804FEA5454D4EB5555B8BF6A
:1002C0006D420CDD2C4480EA020281EA030382EADB
:1002D000000083EA010180EA020281EA0303362D6D
:1002E00088BF30BD11F0004F4FEA01314FF4801C40
:1002F0004CEA113102D0404261EB410113F0004F52
:100300004FEA03334CEA133302D0524263EB430308
:1003100094EA050F00F0A780A4F10104D5F1200EA6
:100320000DDB02FA0EFC22FA05F2801841F1000101
:1003300003FA0EF2801843FA05F359410EE0A5F1D5
:1003400020050EF1200E012A03FA0EFC28BF4CF006
:10035000020C43FA05F3C01851EBE37101F00045BC
:1003600007D54FF0000EDCF1000C7EEB00006EEBC9
:100370000101B1F5801F1BD3B1F5001F0CD3490853
:100380005FEA30004FEA3C0C04F101044FEA4452AA
:1003900012F5800F80F09A80BCF1004F08BF5FEA31
:1003A000500C50F1000041EB045141EA050130BD11
:1003B0005FEA4C0C404141EB0101013C28BFB1F523
:1003C000801FE9D291F0000F04BF01460020B1FA6E
:1003D00081F308BF2033A3F10B03B3F120020CDA41
:1003E0000C3208DD02F1140CC2F10C0201FA0CF01F
:1003F00021FA02F10CE002F11402D8BFC2F1200C84
:1004000001FA02F120FA0CFCDCBF41EA0C01904039
:10041000E41AA2BF01EB0451294330BD6FEA040482
:100420001F3C1CDA0C340EDC04F11404C4F120026D
:1004300020FA04F001FA02F340EA030021FA04F37F
:1004400045EA030130BDC4F10C04C4F1200220FAD6
:1004500002F001FA04F340EA0300294630BD21FA14
:1004600004F0294630BD94F0000F83F4801306BFDA
:1004700081F480110134013D4EE77FEA645C18BFCE
:100480007FEA655C29D094EA050F08BF90EA020F65
:1004900005D054EA000C04BF1946104630BD91EA5D
:1004A000030F1EBF0021002030BD5FEA545C05D160
:1004B0004000494128BF41F0004130BD14F580049F
:1004C0003CBF01F5801130BD01F0004545F0FE4113
:1004D00041F470014FF0000030BD7FEA645C1ABF48
:1004E000194610467FEA655C1CBF0B46024650EA7F
:1004F000013406BF52EA033591EA030F41F40021AB
:1005000030BD00BF90F0000F04BF0021704730B530
:100510004FF4806404F132044FF000054FF0000105
:1005200050E700BF90F0000F04BF0021704730B5C6
:100530004FF4806404F1320410F0004548BF40429B
:100540004FF000013EE700BF42004FEAE2014FEAF0
:1005500031014FEA02701FBF12F07F4393F07F4FCB
:1005600081F06051704732F07F4208BF704793F0CE
:100570007F4F04BF41F40021704730B54FF46074E1
:1005800001F0004521F000411CE700BF50EA0102E4
:1005900008BF704730B54FF000050AE050EA01028D
:1005A00008BF704730B511F0004502D5404261EBFD
:1005B00041014FF4806404F132045FEA915C3FF43E
:1005C000D8AE4FF003025FEADC0C18BF03325FEADB
:1005D000DC0C18BF033202EBDC02C2F1200300FA8C
:1005E00003FC20FA02F001FA03FE40EA0E0021FAB1
:1005F00002F11444BDE600BF70B54FF0FF0C4CF49F
:10060000E06C1CEA11541DBF1CEA135594EA0C0F50
:1006100095EA0C0F00F0DEF82C4481EA030621EA8B
:100620004C5123EA4C5350EA013518BF52EA0335C6
:1006300041F4801143F4801338D0A0FB02CE4FF078
:100640000005E1FB02E506F00042E0FB03E54FF0A8
:100650000006E1FB03569CF0000F18BF4EF0010EA0
:10066000A4F1FF04B6F5007F64F5407404D25FEA9C
:100670004E0E6D4146EB060642EAC62141EA55514F
:100680004FEAC52040EA5E504FEACE2EB4F1FD0C91
:1006900088BFBCF5E06F1ED8BEF1004F08BF5FEA0F
:1006A000500E50F1000041EB045170BD06F00046C1
:1006B00046EA010140EA020081EA0301B4EB5C046E
:1006C000C2BFD4EB0C0541EA045170BD41F4801166
:1006D0004FF0000E013C00F3AB8014F1360FDEBF8B
:1006E000002001F0004170BDC4F10004203C35DA67
:1006F0000C341BDC04F11404C4F1200500FA05F3EA
:1007000020FA04F001FA05F240EA020001F000428A
:1007100021F0004110EBD37021FA04F642EB060100
:100720005EEA430E08BF20EAD37070BDC4F10C042A
:10073000C4F1200500FA04F320FA05F001FA04F2EE
:1007400040EA020001F0004110EBD37041F10001DA
:100750005EEA430E08BF20EAD37070BDC4F12005E5
:1007600000FA05F24EEA020E20FA04F301FA05F24D
:1007700043EA020321FA04F001F0004121FA04F2F5
:1007800020EA020000EBD3705EEA430E08BF20EAC5
:10079000D37070BD94F0000F0FD101F000464000FF
:1007A00041EB010111F4801F08BF013CF7D041EA81
:1007B000060195F0000F18BF704703F00046520085
:1007C00043EB030313F4801F08BF013DF7D043EA56
:1007D0000603704794EA0C0F0CEA135518BF95EA0C
:1007E0000C0F0CD050EA410618BF52EA4306D1D193
:1007F00081EA030101F000414FF0000070BD50EAB2
:10080000410606BF1046194652EA430619D094EA3B
:100810000C0F02D150EA013613D195EA0C0F05D125
:1008200052EA03361CBF104619460AD181EA030179
:1008300001F0004141F0FE4141F470014FF0000031
:1008400070BD41F0FE4141F4780170BD70B54FF0CC
:10085000FF0C4CF4E06C1CEA11541DBF1CEA13554C
:1008600094EA0C0F95EA0C0F00F0A7F8A4EB05042E
:1008700081EA030E52EA03354FEA013100F0888025
:100880004FEA03334FF0805545EA131343EA1263EE
:100890004FEA022245EA111545EA10654FEA0026A3
:1008A0000EF000419D4208BF964244F1FD0404F55C
:1008B000407402D25B084FEA3202B61A65EB0305B8
:1008C0005B084FEA32024FF480104FF4002CB6EB75
:1008D000020E75EB030E22BFB61A754640EA0C00F5
:1008E0005B084FEA3202B6EB020E75EB030E22BF35
:1008F000B61A754640EA5C005B084FEA3202B6EB76
:10090000020E75EB030E22BFB61A754640EA9C0034
:100910005B084FEA3202B6EB020E75EB030E22BF04
:10092000B61A754640EADC0055EA060E18D04FEAC2
:10093000051545EA16754FEA06164FEAC30343EA62
:1009400052734FEAC2025FEA1C1CC0D111F4801F2F
:100950000BD141EA00014FF000004FF0004CB6E728
:1009600011F4801F04BF01430020B4F1FD0C88BFC7
:10097000BCF5E06F3FF6AFAEB5EB030C04BFB6EBD2
:10098000020C5FEA500C50F1000041EB045170BDC5
:100990000EF0004E4EEA113114EB5C04C2BFD4EBF2
:1009A0000C0541EA045170BD41F480114FF0000E76
:1009B000013C90E645EA060E8DE60CEA135594EAF2
:1009C0000C0F08BF95EA0C0F3FF43BAF94EA0C0FF5
:1009D0000AD150EA01347FF434AF95EA0C0F7FF46A
:1009E00025AF104619462CE795EA0C0F06D152EABE
:1009F00003353FF4FDAE1046194622E750EA4106A2
:100A000018BF52EA43067FF4C5AE50EA41047FF4B2
:100A10000DAF52EA43057FF4EBAE12E74FF0FF3C17
:100A200006E000BF4FF0010C02E000BF4FF0010CE8
:100A30004DF804CD4FEA410C7FEA6C5C4FEA430C61
:100A400018BF7FEA6C5C1BD001B050EA410C0CBFB0
:100A500052EA430C91EA030F02BF90EA020F002012
:100A6000704710F1000F91EA030F58BF994208BF79
:100A700090422CBFD8176FEAE37040F00100704736
:100A80004FEA410C7FEA6C5C02D150EA013C07D18D
:100A90004FEA430C7FEA6C5CD6D152EA033CD3D0D8
:100AA0005DF8040B704700BF8446104662468C46D2
:100AB0001946634600E000BF01B5FFF7B7FF002805
:100AC00048BF10F1000F01BD4DF808EDFFF7F4FF2E
:100AD0000CBF012000205DF808FB00BF4DF808EDB9
:100AE000FFF7EAFF34BF012000205DF808FB00BFDC
:100AF0004DF808EDFFF7E0FF94BF012000205DF8FE
:100B000008FB00BF4DF808EDFFF7CEFF94BF0120B2
:100B100000205DF808FB00BF4DF808EDFFF7C4FFAB
:100B200034BF012000205DF808FB00BF4FEA410CF4
:100B30007FEA6C5C02D150EA013C0AD14FEA430CD7
:100B40007FEA6C5C02D152EA033C02D14FF0000014
:100B500070474FF0010070474FEA410212F5001252
:100B600015D211D56FF47873B3EB625212D94FEAF4
:100B7000C12343F0004343EA505311F0004F23FADE
:100B800002F018BF404270474FF00000704750EA33
:100B9000013005D111F0004008BF6FF000407047F0
:100BA0004FF00000704700BF53B94AB9002908BF91
:100BB00000281CBF4FF0FF314FF0FF3000F074B938
:100BC000ADF1080C6DE904CE00F006F8DDF804E0A4
:100BD000DDE9022304B070472DE9F047089D044683
:100BE0008E46002B4DD18A42944669D9B2FA82F2E0
:100BF00052B101FA02F3C2F1200120FA01F10CFA1C
:100C000002FC41EA030E94404FEA1C48210CBEFB53
:100C1000F8F61FFA8CF708FB16E341EA034306FBDC
:100C200007F199420AD91CEB030306F1FF3080F06B
:100C30001F81994240F21C81023E63445B1AA4B2B8
:100C4000B3FBF8F008FB103344EA034400FB07F75A
:100C5000A7420AD91CEB040400F1FF3380F00A819B
:100C6000A74240F207816444023840EA0640E41B90
:100C700000261DB1D4400023C5E900433146BDE83C
:100C8000F0878B4209D9002D00F0EF800026C5E9DE
:100C9000000130463146BDE8F087B3FA83F6002EF6
:100CA0004AD18B4202D3824200F2F980841A61EB6E
:100CB000030301209E46002DE0D0C5E9004EDDE78C
:100CC00002B9FFDEB2FA82F2002A40F09280A1EB74
:100CD0000C014FEA1C471FFA8CFE0126200CB1FBC9
:100CE000F7F307FB131140EA01410EFB03F08842C2
:100CF00008D91CEB010103F1FF3802D2884200F24F
:100D0000CB804346091AA4B2B1FBF7F007FB1011E0
:100D100044EA01440EFB00FEA64508D91CEB04047E
:100D200000F1FF3102D2A64500F2BB800846A4EBD9
:100D30000E0440EA03409CE7C6F12007B34022FAC4
:100D400007FC4CEA030C20FA07F401FA06F31C43F3
:100D5000F9404FEA1C4900FA06F3B1FBF9F8200C00
:100D60001FFA8CFE09FB181140EA014108FB0EF046
:100D7000884202FA06F20BD91CEB010108F1FF3A96
:100D800080F08880884240F28580A8F102086144A2
:100D9000091AA4B2B1FBF9F009FB101144EA0141B0
:100DA00000FB0EFE8E4508D91CEB010100F1FF345B
:100DB0006CD28E456AD90238614440EA0840A0FBF3
:100DC0000294A1EB0E01A142C846A64656D353D0C9
:100DD0005DB1B3EB080261EB0E0101FA07F722FAED
:100DE00006F3F1401F43C5E9007100263146BDE816
:100DF000F087C2F12003D8400CFA02FC21FA03F379
:100E0000914001434FEA1C471FFA8CFEB3FBF7F0F9
:100E100007FB10360B0C43EA064300FB0EF69E421E
:100E200004FA02F408D91CEB030300F1FF382FD2B7
:100E30009E422DD9023863449B1B89B2B3FBF7F65F
:100E400007FB163341EA034106FB0EF38B4208D938
:100E50001CEB010106F1FF3816D28B4214D9023E79
:100E60006144C91A46EA004638E72E46284605E797
:100E70000646E3E61846F8E64B45A9D2B9EB020868
:100E800064EB0C0E0138A3E74646EAE7204694E7F8
:100E90004046D1E7D0467BE7023B614432E730462B
:100EA00009E76444023842E7704700BF80B584B068
:100EB00000AF0346FB804FF480511F4803F08CFDC8
:100EC0000346BB734FF400511B4803F085FD0346F6
:100ED0005B005AB297F90E3013435BB2BB734FF409
:100EE0008041154803F078FD03469B005AB297F9FC
:100EF0000E3013435BB2BB73104B1B785BB2002BFD
:100F000009DA0E4B1B785BB2DBB25B42FB730C4B16
:100F100000221A6006E0094B1B785BB2FB73084B9A
:100F200001221A60FB7B642B01D96423FB7300BF91
:100F30001037BD4680BD00BF0004004808020020F5
:100F40000402002080B485B000AFF860B9607A6018
:100F50003B60FB68D9B2114AFB6802F823107B683A
:100F6000D9B20E4AFB689B0013440A465A70BB680C
:100F7000D9B20A4AFB689B0013440A469A703B6840
:100F8000D9B2064AFB689B0013440A46DA7000BFD8
:100F90001437BD465DF8047B704700BF1002002087
:100FA00080B586B000AF00237B6100233B6136E053
:100FB0002E4A3B699B0013445B781A042B493B691A
:100FC0009B000B449B781B021A4328493B699B00FA
:100FD0000B44DB7813437B601723FB6019E001228D
:100FE000FB6802FA03F31A467B681340002B05D016
:100FF0001F4A7B693C2122F8131004E01C4A7B69DC
:101000001E2122F813107B6901337B61FB68013BD1
:10101000FB60FB68002BE2DA3B6901333B613B6913
:10102000172BC5DD0023BB600AE0114A7B69002154
:1010300022F813107B6901337B61BB680133BB600D
:10104000BB68312BF1DD7B699BB2094A0821094855
:1010500005F0F8FE00BF084B1B68002BFBD0064BC9
:1010600000221A6000BF1837BD4680BD1002002064
:1010700070020020BC0800200C02002080B582B065
:1010800000AF78600821786806F0FCF8034B012275
:101090001A6000BF0837BD4680BD00BF0C020020AB
:1010A00090B583B000AF7860674BD3E900234FF071
:1010B00000006649FFF7E8F802460B46104619465D
:1010C000FFF74AFD0346624A1360614B1B68614AA1
:1010D0001360614B1A685E4B1B6813445E4A1360D1
:1010E0005D4B1B68002B03DD5B4B00221A6006E0A2
:1010F000594B1B68002B02DA574B00221A60544BE5
:101100001A68564B1B68D31A554A1360504B1B681C
:10111000524A13604F4B1A684F4B1B681A44504B8E
:101120001B6813444F4A13604E4B1B68642B03DD4E
:101130004C4B64221A6008E04A4B1B6813F1640FA1
:1011400003DA484B6FF063021A60474B1B680133A8
:10115000454A13603C4BD3E900234FF000003B4964
:10116000FFF792F802460B461046194601231C462B
:101170004FF000023D4BFFF7C5FC0346002B01D1A9
:1011800000231C46E2B2384B1B6840F2E7318B4229
:10119000CCBF01230023DBB21340DBB2002B0BD00A
:1011A000334B93F90030DBB20133DBB25AB2304B30
:1011B0001A702D4B00221A60234BD3E900234FF005
:1011C00000002249FFF760F802460B461046194618
:1011D00001231C464FF00002264BFFF789FC034613
:1011E000002B01D100231C46E2B21F4B1B6840F2CA
:1011F000E7318B42CCBF01230023DBB21340DBB2CB
:10120000002B0BD01A4B93F90030DBB2013BDBB261
:101210005AB2174B1A70144B00221A60144B93F9F0
:10122000003013F1640F02DA114B9C221A70104B3C
:1012300093F90030642B02DD0D4B64221A7000BF5D
:101240000C37BD4690BD00BF700A0020008066408C
:10125000540700205C07002060070020580700208A
:1012600064070020680700206C0700200000494048
:1012700008020020000049C080B582B000AF0346DC
:10128000FB71FB791946072000F07EFE00BF08378E
:10129000BD4680BD80B582B000AFFB1D012219465E
:1012A0003D2000F05DFFFB7918460837BD4680BD44
:1012B00080B582B000AF0346FB71FB7919463D2033
:1012C00000F062FEFB79002B03D1132000F050FEEA
:1012D00002E0072000F04CFE00BF0837BD4680BD8D
:1012E00080B500AF0020FFF7E3FF00BF80BD80B5F1
:1012F00000AF20213F2000F047FE4FF42F7000F098
:1013000037FE00BF80BD000080B582B000AFFFF7A0
:10131000EEFF0023FB71FB1D01221946002000F0A7
:101320001FFFFB79A02B04D0FB791946094808F070
:101330006BFB0020FFF7A0FF00213F2000F024FE00
:10134000FFF7CEFF0A2000F013FE00BF0837BD46AE
:1013500080BD00BF78BC000880B584B000AF00201D
:10136000FFF78AFF0023BB600023FB71FB1D0122F6
:101370001946352000F0F4FEFB799B09DBB23B7285
:10138000FB791B09DBB203F00303DBB27B72FB7951
:101390009B08DBB203F00303DBB2FB72FB7903F0C3
:1013A0000303DBB2BB72BB68FB6000233A7B62F3D2
:1013B00007037A7B62F30F23BA7B62F31743FA7B4E
:1013C00062F31F6318461037BD4680BD2DE9B04358
:1013D0009EB000AF034687F827300020FFF74CFF90
:1013E00097F82730202B08D107F1480197F82730CC
:1013F0000822184600F0B4FE07E007F1480197F80C
:1014000027300622184600F0ABFE4FF000028B4B4F
:10141000C7E91C2397F827300E2B09D1884B1B886E
:101420001846FFF76FF802460B46C7E91C233EE05B
:1014300097F82730082B07D097F82730282B03D0B0
:1014400097F827302E2B09D17E4B1B881846FFF7C3
:1014500059F802460B46C7E91C2328E097F82730C5
:10146000142B09D1784B1B881846FFF74BF802461E
:101470000B46C7E91C231AE097F827301A2B09D12D
:10148000724B1B881846FFF73DF802460B46C7E92A
:101490001C230CE097F82730202B08D16C4B1B88BD
:1014A0001846FFF72FF802460B46C7E91C2307F141
:1014B000280320220021184607F034FE97F8273031
:1014C000202B50D197F849301B021AB297F84830B8
:1014D0001BB213431BB21846FFF724F8D7E91C23AD
:1014E000FFF7B4F902460B46C7E90A2397F84B30D9
:1014F0001B021AB297F84A301BB213431BB21846AC
:10150000FFF710F8D7E91C23FFF7A0F902460B46B6
:10151000C7E90C2397F84D301B021AB297F84C30EC
:101520001BB213431BB21846FEF7FCFFD7E91C237E
:10153000FFF78CF902460B46C7E90E2397F84F30A8
:101540001B021AB297F84E301BB213431BB2184657
:10155000FEF7E8FFD7E91C23FFF778F902460B46B0
:10156000C7E910233BE097F849301B021AB297F8FD
:1015700048301BB213431BB21846FEF7D3FFD7E91E
:101580001C23FFF763F902460B46C7E90C2397F8C3
:101590004B301B021AB297F84A301BB213431BB2EE
:1015A0001846FEF7BFFFD7E91C23FFF74FF90246A5
:1015B0000B46C7E90E2397F84D301B021AB297F875
:1015C0004C301BB213431BB21846FEF7ABFFD7E9F2
:1015D0001C23FFF73BF902460B46C7E9102307F12E
:1015E000500407F128050FCD0FC495E80F0084E8DB
:1015F0000F00D7E91489D7E91645D7E91801D7E9CB
:101600001A2349EC148B45EC154B41EC160B43ECBB
:10161000172BB0EE440AF0EE640AB0EE451AF0EE75
:10162000651AB0EE462AF0EE662AB0EE473AF0EEC2
:10163000673A7837BD46BDE8B08300BF0000F03F91
:10164000060000200000002002000020040000200E
:10165000080000202DE9B04390B000AF1A20FFF73A
:10166000B5FEB0EE404AF0EE604AB0EE415AF0EE00
:10167000615AB0EE426AF0EE626AB0EE437AF0EE82
:10168000637A87ED084B87ED0A5B87ED0C6B87ED7E
:101690000E7BD7E90889D7E90A45D7E90C01D7E9D4
:1016A0000E2349EC148B45EC154B41EC160B43EC27
:1016B000172BB0EE440AF0EE640AB0EE451AF0EED5
:1016C000651AB0EE462AF0EE662AB0EE473AF0EE22
:1016D000673A4037BD46BDE8B0832DE9B04390B0CE
:1016E00000AF2E20FFF772FEB0EE404AF0EE604AE7
:1016F000B0EE415AF0EE615AB0EE426AF0EE626A24
:10170000B0EE437AF0EE637A87ED084B87ED0A5B23
:1017100087ED0C6B87ED0E7BD7E90889D7E90A4581
:10172000D7E90C01D7E90E2349EC148B45EC154B96
:1017300041EC160B43EC172BB0EE440AF0EE640AB2
:10174000B0EE451AF0EE651AB0EE462AF0EE662AC3
:10175000B0EE473AF0EE673A4037BD46BDE8B08399
:1017600080B500AF01F0EAFA00F015F800F050FB88
:1017700000F01CFB00F0EAFA00F098F900F002F922
:1017800000F00AFA00F094FA00F054F800F03AF988
:1017900000F008FDFEE780B596B000AF07F1140336
:1017A00044220021184607F0BDFC3B4600221A6087
:1017B0005A609A60DA601A614FF4007003F006FF15
:1017C0000346002B01D000F0BDFB01237B614FF4E9
:1017D0008033BB610223FB6303233B6401237B64EF
:1017E0001423BB640723FB6402233B6502237B6550
:1017F00007F11403184603F03FFF0346002B01D006
:1018000000F0A0FB0F233B6003237B600023BB6041
:101810000023FB6000233B613B460421184604F093
:1018200007FB0346002B01D000F08CFB00BF5837AC
:10183000BD4680BD80B58AB000AF07F11C03002211
:101840001A605A609A603B1D00221A605A609A60C2
:10185000DA601A615A61454B454A1A60434B4FF4AE
:1018600080125A60414B00229A60404B0022DA609D
:101870003E4B01221A613D4B04225A613B4B002230
:101880001A763A4B00225A76384B0422DA61374BEB
:10189000002283F82020354B00229A62334B00222D
:1018A000DA62324B002283F83020304B00225A6338
:1018B0002E4B002283F838202C4801F091FC03467F
:1018C000002B01D000F03EFB0023FB6107F11C035D
:1018D0001946264802F0DCFA0346002B01D000F03E
:1018E00031FB244B7B600623BB600023FB607F231E
:1018F0003B6104237B610023BB613B1D19461B48F0
:1019000001F0C4FD0346002B01D000F01BFB1A4B75
:101910007B600C23BB603B1D1946144801F0B6FDEB
:101920000346002B01D000F00DFB144B7B6012230B
:10193000BB603B1D19460D4801F0A8FD0346002B76
:1019400001D000F0FFFA0E4B7B601823BB603B1DFB
:101950001946064801F09AFD0346002B01D000F01D
:10196000F1FA00BF2837BD4680BD00BF70070020D8
:101970000000045002003004040060080800900CCD
:101980001000C01080B500AF1B4B1C4A1A601A4BE8
:101990001B4A5A60184B00229A60174B0122DA60EA
:1019A000154B00221A61144B00225A61124B00227F
:1019B0009A61114B0022DA610F4B00221A620E4825
:1019C00003F052F80346002B01D000F0BBFA0021CF
:1019D000094803F055FD0346002B01D000F0B2FA90
:1019E0000021054803F097FD0346002B01D000F0CD
:1019F000A9FA00BF80BD00BF1C08002000540040B1
:101A00009129700080B588B000AF07F11003002263
:101A10001A605A609A60DA603B1D00221A605A60B0
:101A20009A60204B204A1A601E4B00225A601D4BC0
:101A300000229A601B4B4FF6FF72DA60194B0022AE
:101A40001A61184B00225A61164B00229A61154800
:101A500005F0CEF80346002B01D000F073FA4FF4E6
:101A600080533B6107F1100319460E4805F036FF1D
:101A70000346002B01D000F065FA00237B600023B1
:101A8000BB600023FB603B1D1946064806F022FDA3
:101A90000346002B01D000F055FA00BF2037BD46A9
:101AA00080BD00BF70080020002C014080B58EB0C2
:101AB00000AF07F1280300221A605A609A60DA60CA
:101AC00007F11C0300221A605A609A603B4600220C
:101AD0001A605A609A60DA601A615A619A612D4BF5
:101AE0004FF080421A602B4B00225A60294B002293
:101AF0009A60284B6422DA60264B00221A61254B3B
:101B000000229A61234805F073F80346002B01D0A8
:101B100000F018FA4FF48053BB6207F1280319460E
:101B20001C4805F0DBFE0346002B01D000F00AFA4A
:101B3000184805F025F90346002B01D000F002FA01
:101B40000023FB6100237B6207F11C031946114847
:101B500006F0C0FC0346002B01D000F0F3F960232F
:101B60003B6000237B600023BB6000233B613B465E
:101B700008221946074805F09DFD0346002B01D0B9
:101B800000F0E0F9034800F08BFE00BF3837BD4697
:101B900080BD00BFBC08002080B58EB000AF07F14B
:101BA000280300221A605A609A60DA6007F11C0369
:101BB00000221A605A609A603B4600221A605A60FE
:101BC0009A60DA601A615A619A61374B374A1A6033
:101BD000354B2B225A60344B00229A60324B6422E0
:101BE000DA60314B00221A612F4B00229A612E4895
:101BF00004F0FEFF0346002B01D000F0A3F94FF4E0
:101C00008053BB6207F128031946274805F066FE9A
:101C10000346002B01D000F095F9234805F0B0F8F9
:101C20000346002B01D000F08DF90023FB61002357
:101C30007B6207F11C0319461B4806F04BFC034668
:101C4000002B01D000F07EF960233B6000237B6015
:101C50000023BB6000233B613B460022194612482B
:101C600005F028FD0346002B01D000F06BF93B4640
:101C7000042219460C4805F01DFD0346002B01D037
:101C800000F060F93B4608221946074805F012FDAE
:101C90000346002B01D000F055F9034800F000FE88
:101CA00000BF3837BD4680BD080900200004004051
:101CB00080B588B000AF07F1100300221A605A60A7
:101CC0009A60DA603B1D00221A605A609A601D4BD0
:101CD0001D4A1A601B4BC5225A601A4B00229A609B
:101CE000184B6422DA60174B00221A61154B002250
:101CF0009A61144804F07CFF0346002B01D000F0E9
:101D000021F94FF480533B6107F1100319460D4848
:101D100005F0E4FD0346002B01D000F013F9002389
:101D20007B600023FB603B1D1946064806F0D2FB92
:101D30000346002B01D000F005F900BF2037BD4657
:101D400080BD00BF540900200008004080B500AFEE
:101D5000144B154A1A60134B4FF4E1325A60114B81
:101D600000229A600F4B0022DA600E4B00221A61AB
:101D70000C4B0C225A610B4B00229A61094B00223A
:101D8000DA61084B00221A62064B00225A620548AB
:101D900006F046FC0346002B01D000F0D3F800BF4C
:101DA00080BD00BFE80900200044004080B582B03B
:101DB00000AF164B9B6C154A43F002039364134B20
:101DC0009B6C03F002037B607B68104B9B6C0F4A9B
:101DD00043F0010393640D4B9B6C03F001033B60E4
:101DE0003B68002200210B2002F0DDF90B2002F0FD
:101DF000F6F9002200213A2002F0D5F93A2002F04B
:101E0000EEF900BF0837BD4680BD00BF001002409C
:101E100080B58AB000AF07F1140300221A605A603F
:101E20009A60DA601A61444BDB6C434A43F08003EA
:101E3000D364414BDB6C03F080033B613B693E4B59
:101E4000DB6C3D4A43F00403D3643B4BDB6C03F093
:101E50000403FB60FB68384BDB6C374A43F001033B
:101E6000D364354BDB6C03F00103BB60BB68324BC2
:101E7000DB6C314A43F00203D3642F4BDB6C03F07D
:101E800002037B607B6800224FF4E4614FF09040D6
:101E900002F0BAFD00220221284802F0B5FD01221D
:101EA0004FF40061264802F0AFFD4FF4E4637B611C
:101EB0000123BB610023FB6100233B6207F1140394
:101EC00019464FF0904002F0DDFB02237B610123B5
:101ED000BB610023FB6100233B6207F11403194639
:101EE000164802F0CFFB4FF4E0437B614FF44413FC
:101EF000BB610023FB6107F1140319460F4802F090
:101F0000C1FB4FF400637B610123BB610123FB61D3
:101F100000233B6207F114031946094802F0B2FBA3
:101F200000220021282002F03EF9282002F057F973
:101F300000BF2837BD4680BD0010024000040048A5
:101F40000008004880B400AF72B600BFFEE7000092
:101F500080B483B000AF7860044A7B68136000BF30
:101F60000C37BD465DF8047B704700BF6C0A00204B
:101F700080B582B000AF78607B68184600F05AFFE9
:101F800000BF0837BD4680BD80B588B002AF0346AC
:101F90000A46FB711346BB71FB793B73BB797B73BC
:101FA0005A4B186807F10C020A23009302235021B0
:101FB00002F0EAFD0346FB75FB7D002B00F0A080DC
:101FC000FB7D012B03D1524807F0A4FD12E0FB7DFD
:101FD000032B03D14F4807F09DFD0BE0FB7D022B47
:101FE00003D14D4807F096FD04E0FB7D19464B48B0
:101FF00007F00AFD454B1B68184602F0BDFF38612B
:102000003B69002B7ED03B69012B03D1444807F08C
:1020100081FD21E03B69022B03D1424807F07AFDA4
:102020001AE03B69042B03D13F4807F073FD13E02E
:102030003B69082B03D13D4807F06CFD0CE03B6980
:10204000102B03D13A4807F065FD05E03B69202BD2
:1020500002D1384807F05EFD2C4B1B68184602F091
:102060007DFF0346FB73FB7B002B03D1324807F057
:1020700051FD48E0FB7B202B03D12F4807F04AFDA0
:1020800041E0FB7B242B03D12C4807F043FD3AE0D1
:10209000FB7B212B03D12A4807F03CFD33E0FB7B7F
:1020A000222B03D1274807F035FD2CE0FB7B282BA2
:1020B00003D1254807F02EFD25E0FB7B292B03D11A
:1020C000224807F027FD1EE0FB7B2A2B03D1204886
:1020D00007F020FD17E0FB7B602B03D11D4807F0C4
:1020E00019FD10E0FB7BA02B03D11B4807F012FD6C
:1020F00009E0FB7BE02B06D1184807F00BFD02E05E
:1021000000BF00E000BF1837BD4680BD6C0A00204C
:10211000B4BC0008D8BC000800BD000824BD0008FD
:102120003CBD000850BD000864BD000878BD000833
:102130008CBD0008A0BD0008B8BD0008D0BD0008D7
:10214000E4BD0008FCBD000814BE00082CBE000859
:102150004CBE00086CBE000884BE00089CBE00088F
:1021600080B584B002AF03463960FB711346BB7182
:102170000B4B1868FA1D642300930123502102F0D1
:1021800003FD074B1868BB799BB2642200923A6842
:10219000502102F0EDFD00BF0837BD4680BD00BFF5
:1021A0006C0A002080B5AEB002AF7F218A4801F0F2
:1021B0000FFE4FF4FA7000F03DFE884807F0AAFCCD
:1021C0008748FFF7C5FEFFF79FF80820FFF770F874
:1021D000844807F09FFC0123C7F894300123C7F817
:1021E00090300023C7F88C307F4804F059FDD7F8B1
:1021F000883041F28832934205DCD7F888300133C9
:10220000C7F8883015E0FFF745F8034687F88330B4
:10221000FFF7A2F803463B6497F8831097F8433022
:102220001A4697F84130714807F0EEFB0023C7F8D3
:102230008830FFF70FFAB0EE404AF0EE604AB0EE99
:10224000415AF0EE615AB0EE426AF0EE626AB0EEC8
:10225000437AF0EE637A87ED004B87ED025B87ED02
:10226000046B87ED067BD7E902236149C1E90023AE
:10227000FFF733FAB0EE404AF0EE604AB0EE415A52
:10228000F0EE615AB0EE426AF0EE626AB0EE437A66
:10229000F0EE637A87ED084B87ED0A5B87ED0C6BF8
:1022A00087ED0E7BD7E90A014FF000024FF00003E3
:1022B000FEF71EFC0346002B03D00023C7F898301E
:1022C00002E00323C7F898300123C7F884300CE0FC
:1022D000D7F884309B00B0333B44012243F86C2C88
:1022E000D7F884300133C7F88430D7F884300C2B0A
:1022F000EEDD02237B64D7F894309B00B0333B447F
:10230000042243F86C2CD7F894300C2B02D1002314
:10231000C7F89030D7F89430002B02D10123C7F8CA
:102320009030D7F89030012B0CBF01230023DAB294
:10233000D7F88C30092B8CBF01230023DBB213406C
:10234000DBB2002B07D0D7F894300133C7F89430B4
:102350000023C7F88C30D7F89030002B0CBF012336
:102360000023DAB2D7F88C30092B8CBF012300236D
:10237000DBB21340DBB2002B07D0D7F89430013B1F
:10238000C7F894300023C7F88C30D7F88C3001336D
:10239000C7F88C300023C7F8A030ACE0D7F8A030E5
:1023A000032B03DD0123C7F8A83002E00023C7F8A0
:1023B000A830D7F8A030062B03DC0123C7F8A430DF
:1023C00002E00023C7F8A430D7F8A030092B11DDB4
:1023D0000123C7F8AC3010E070070020B4BE00083D
:1023E0001C080020C0BE000854090020D0BE000810
:1023F000700A00200023C7F8AC30D7F8A030002BBB
:1024000002D10523C7F8AC30D7F89820D7F8A03010
:10241000D31AC7F89C30D7F89C30002B04DAD7F8D1
:102420009C301833C7F89C30D7F8A0309B00B033ED
:102430003B4453F86C3CD7F8AC2002FB03F3990003
:10244000D7F8A0309B00B0333B4453F86C3CD7F82E
:10245000A82002FB03F39800D7F8A0309B00B0330C
:102460003B4453F86C3CD7F8A42002FB03F39B00D9
:102470000246D7F89C00FEF765FDD7F89820D7F8FC
:10248000A0301344C7F89C30D7F89C30172B04DDDC
:10249000D7F89C30183BC7F89C30D7F8A0309B0089
:1024A000B0333B4453F86C3CD7F8AC2002FB03F349
:1024B0009900D7F8A0309B00B0333B4453F86C3CF4
:1024C000D7F8A82002FB03F39800D7F8A0309B00B0
:1024D000B0333B4453F86C3CD7F8A42002FB03F321
:1024E0009B000246D7F89C00FEF72CFDD7F8A030E1
:1024F0000133C7F8A030D7F8A0300C2B7FF74EAFD0
:10250000FEF74EFD012000F095FC094B93F90030D9
:102510001846084BD3E90023074909680091014692
:10252000064807F071FA0020FEF7C0FC5FE600BF26
:1025300008020020700A002068070020F8BE00088A
:1025400080B483B000AF0F4B1B6E0E4A43F0010303
:1025500013660C4B1B6E03F001037B607B68094B19
:102560009B6D084A43F080539365064B9B6D03F0C7
:1025700080533B603B6800BF0C37BD465DF8047B71
:10258000704700BF0010024080B5ACB000AF78606B
:1025900007F19C0300221A605A609A60DA601A619F
:1025A00007F1140388220021184606F0BBFD7B6862
:1025B0001B683C4A934271D14FF480437B614FF0DA
:1025C0008053C7F88C300323BB610123FB610823D0
:1025D0003B6207237B620223BB620223FB624FF054
:1025E00080733B6307F11403184603F045FE03466E
:1025F000002B01D0FFF7A6FC2B4BDB6C2A4A43F4DF
:102600000053D364284BDB6C03F400533B613B69FC
:10261000254BDB6C244A43F00403D364224BDB6C70
:1026200003F00403FB60FB680F23C7F89C300B2307
:10263000C7F8A0300023C7F8A43007F19C0319465F
:102640001A4802F01FF81A4B1A4A1A60184B002257
:102650005A60174B00229A60154B0022DA60144B27
:1026600080221A61124B4FF480725A61104B4FF462
:1026700080629A610E4B0022DA610D4B00221A62D1
:102680000B4801F0C7FD0346002B01D0FFF75AFCB1
:102690007B68074ADA64064A7B68936200BFB037FA
:1026A000BD4680BD000004500010024000080048F4
:1026B000D40700203004024080B5ACB000AF786091
:1026C00007F19C0300221A605A609A60DA601A616E
:1026D00007F1140388220021184606F023FD7B68C9
:1026E0001B68214A93423BD140237B6100237B66D8
:1026F00007F11403184603F0BFFD0346002B01D079
:10270000FFF720FC194BDB6C184A43F00203D3643B
:10271000164BDB6C03F002033B613B694FF44073E3
:10272000C7F89C301223C7F8A0300023C7F8A430A4
:102730000323C7F8A8300423C7F8AC3007F19C0383
:1027400019460B4801F09EFF084B9B6D074A43F466
:1027500000139365054B9B6D03F40013FB60FB684E
:1027600000BFB037BD4680BD00540040001002409D
:102770000004004880B586B000AF78607B681B68B5
:10278000414A93420CD1414B1B6E404A43F40063D3
:1027900013663E4B1B6E03F400637B617B696FE045
:1027A0007B681B68B3F1804F37D1384B9B6D374A3C
:1027B00043F001039365354B9B6D03F001033B61CF
:1027C0003B69334B334A1A60314B04225A60304B19
:1027D00010229A602E4B0022DA602D4B80221A6163
:1027E0002B4B4FF400725A61294B4FF480629A616F
:1027F000274B0022DA61264B00221A62244801F09E
:1028000009FD0346002B01D0FFF79CFB7B68204AA3
:10281000DA621F4A7B68936232E07B681B681E4A5B
:10282000934214D1194B9B6D184A43F002039365F0
:10283000164B9B6D03F00203FB60FB680022002136
:102840001D2001F0B0FC1D2001F0C9FC18E07B68E0
:102850001B68124A934213D10C4B9B6D0B4A43F0F9
:1028600004039365094B9B6D03F00403BB60BB68D5
:10287000002200211E2001F096FC1E2001F0AFFC7A
:1028800000BF1837BD4680BD002C0140001002403B
:10289000A009002008000240000400400008004099
:1028A00080B58AB000AF786007F1140300221A6087
:1028B0005A609A60DA601A617B681B68B3F1804FD6
:1028C0001DD1304BDB6C2F4A43F00203D3642D4BF8
:1028D000DB6C03F002033B613B694FF480637B6177
:1028E0000223BB610023FB6100233B6201237B6267
:1028F00007F114031946244801F0C4FE3DE07B684B
:102900001B68224A934238D11E4BDB6C1D4A43F0B0
:102910000103D3641B4BDB6C03F00103FB60FB681A
:10292000184BDB6C174A43F00203D364154BDB6C86
:1029300003F00203BB60BB68C0237B610223BB6161
:102940000023FB6100233B6202237B6207F1140337
:1029500019464FF0904001F095FE01237B61022360
:10296000BB610023FB6100233B6202237B6207F112
:1029700014031946044801F085FE00BF2837BD4600
:1029800080BD00BF00100240000400480004004069
:1029900080B5ACB000AF786007F19C0300221A60EC
:1029A0005A609A60DA601A6107F1140388220021E4
:1029B000184606F0B7FB7B681B68214A93423BD15F
:1029C00002237B6100233B6507F11403184603F0E3
:1029D00053FC0346002B01D0FFF7B4FA194B9B6D53
:1029E000184A43F400339365164B9B6D03F4003390
:1029F0003B613B69134BDB6C124A43F00103D36428
:102A0000104BDB6C03F00103FB60FB680C23C7F881
:102A10009C300223C7F8A0300023C7F8A43003235A
:102A2000C7F8A8300723C7F8AC3007F19C03194654
:102A30004FF0904001F026FE00BFB037BD4680BD8C
:102A4000004400400010024080B400AFFEE780B4B4
:102A500000AFFEE780B400AFFEE780B400AFFEE752
:102A600080B400AFFEE780B400AF00BFBD465DF8A4
:102A7000047B704780B400AF00BFBD465DF8047BA7
:102A8000704780B400AF00BFBD465DF8047B70475F
:102A900080B500AF00F0AEF900BF80BD80B500AFDB
:102AA000024801F010FD00BF80BD00BFA00900205A
:102AB00080B500AF024804F0DDFC00BF80BD00BF60
:102AC0000809002080B500AF024804F0D3FC00BF25
:102AD00080BD00BF5409002080B500AF4FF4805086
:102AE00001F0AAFF4FF4005001F0A6FF4FF4804020
:102AF00001F0A2FF00BF80BD80B500AF024801F029
:102B0000E2FC00BF80BD00BFD407002080B400AF4E
:102B100001231846BD465DF8047B704780B582B03E
:102B200000AF7860396006F0C5FA034616221A60D5
:102B30004FF0FF3318460837BD4680BD80B582B0E0
:102B400000AF78604FF0FF317868FFF7E7FFFEE7EE
:102B500080B586B000AFF860B9607A6000237B6111
:102B60000AE0AFF300800146BB685A1CBA60CAB2E3
:102B70001A707B6901337B617A697B689A42F0DB6A
:102B80007B6818461837BD4680BD80B483B000AF5F
:102B900078604FF0FF3318460C37BD465DF8047B74
:102BA000704780B483B000AF786039603B684FF401
:102BB00000525A60002318460C37BD465DF8047B6E
:102BC000704780B483B000AF7860012318460C379B
:102BD000BD465DF8047B704780B485B000AFF860F7
:102BE000B9607A60002318461437BD465DF8047B4F
:102BF0007047000080B586B000AF7860144A154B6E
:102C0000D31A7B617B693B61134B1B68002B02D19C
:102C1000114B124A1A60104B1A687B6813443A69C8
:102C20009A4207D206F046FA03460C221A604FF089
:102C3000FF3309E0084B1B68FB60074B1A687B6891
:102C40001344054A1360FB6818461837BD4680BD1B
:102C50000080012000040000780A0020900A002073
:102C600080B400AF064BD3F88830054A43F47003B4
:102C7000C2F8883000BFBD465DF8047B704700BFD6
:102C800000ED00E080B584B000AF78607B68DBB217
:102C90003B7307F10C010A230122044805F00EFDE5
:102CA0007B6818461037BD4680BD00BFE80900208C
:102CB00080B586B000AFF860B9607A6000237B61B0
:102CC00009E0BB685A1CBA601B781846FFF7DAFFA8
:102CD0007B6901337B617A697B689A42F1DB7B68AF
:102CE00018461837BD4680BDDFF834D0FFF7B8FF6F
:102CF0000C480D490D4A002302E0D458C450043357
:102D0000C4188C42F9D30A4A0A4C002301E013602C
:102D10000432A242FBD306F0D3F9FEF721FDFEE711
:102D20000080012000000020E801002044C30008CA
:102D3000E8010020900A0020FEE7000080B582B084
:102D400000AF0023FB710C4B1B680B4A43F48073EC
:102D50001360032001F01CFA002000F00FF8034676
:102D6000002B02D00123FB7101E0FFF7E9FBFB79A7
:102D700018460837BD4680BD0020024080B584B0AB
:102D800000AF78600023FB73174B1B78002B23D018
:102D9000164B1A68144B1B7819464FF47A73B3FB21
:102DA000F1F3B2FBF3F3184601F027FA0346002BC8
:102DB0000FD17B680F2B09D8002279684FF0FF30C4
:102DC00001F0F1F90A4A7B68136007E00123FB7305
:102DD00004E00123FB7301E00123FB73FB7B184636
:102DE0001037BD4680BD00BF140000200C0000203D
:102DF0001000002080B400AF064B1B781A46064B2B
:102E00001B681344044A136000BFBD465DF8047B91
:102E1000704700BF140000207C0A002080B400AF7F
:102E2000034B1B681846BD465DF8047B704700BF26
:102E30007C0A002080B584B000AF7860FFF7EEFF19
:102E4000B8607B68FB60FB68B3F1FF3F05D00A4BBD
:102E50001B781A46FB681344FB6000BFFFF7DEFFD8
:102E60000246BB68D31AFA689A42F7D800BF00BF7F
:102E70001037BD4680BD00BF1400002080B483B071
:102E800000AF786039607B689B6823F47C123B68F4
:102E90001A437B689A6000BF0C37BD465DF8047B1F
:102EA000704780B483B000AF786039607B689B68FE
:102EB00023F0E0723B681A437B689A6000BF0C37CE
:102EC000BD465DF8047B704780B483B000AF786086
:102ED0007B689B6803F0E07318460C37BD465DF8CD
:102EE000047B704780B487B000AFF860B9607A6047
:102EF0003B60FB6860331A46BB689B0013447B61F0
:102F00007B691A68084B13407A6802F0F8413A6806
:102F10000A43134343F000427B691A6000BF1C3729
:102F2000BD465DF8047B704700F0FF0380B485B0B8
:102F300000AF786039607B6860331A463B689B005D
:102F40001344FB60FB681B6803F0F8431846143712
:102F5000BD465DF8047B704780B487B000AFF86071
:102F6000B9607A60FB6860331A46BB689B00134403
:102F70007B617B691B6823F000427B681A437B6995
:102F80001A6000BF1C37BD465DF8047B704780B4F3
:102F900087B000AFF860B9607A60FB6830331A46DA
:102FA000BB681B0A9B0003F00C0313447B617B6925
:102FB0001A68BB6803F01F031F2101FA03F3DB4308
:102FC0001A407B689B0E03F01F01BB6803F01F03D0
:102FD00001FA03F31A437B691A6000BF1C37BD4630
:102FE0005DF8047B704780B487B000AFF860B960CB
:102FF0007A60FB6814331A46BB685B0E9B0003F0D3
:10300000040313447B617B691A68BB681B0D03F0E2
:103010001F03072101FA03F3DB431A40BB681B0DB2
:1030200003F01F03796801FA03F31A437B691A60FE
:1030300000BF1C37BD465DF8047B704780B485B087
:1030400000AFF860B9607A60FB68D3F8B020BB6865
:10305000C3F31203DB431A407B6803F018030849EB
:10306000D940BB680B40C3F312031A43FB68C3F893
:10307000B02000BF1437BD465DF8047B704700BF29
:10308000FFFF070080B483B000AF78607B689B6867
:1030900023F0204323F03F037A68936000BF0C378E
:1030A000BD465DF8047B704780B483B000AF7860A4
:1030B0007B689B6803F00053B3F1005F01D10123EB
:1030C00000E0002318460C37BD465DF8047B7047CE
:1030D00080B483B000AF78607B689B6823F01043B6
:1030E00023F03F0343F080527B689A6000BF0C37A7
:1030F000BD465DF8047B704780B483B000AF786054
:103100007B689B6803F08053B3F1805F01D101239A
:1031100000E0002318460C37BD465DF8047B70477D
:1031200080B483B000AF78607B689B6823F0004375
:1031300023F03F0343F002027B689A6000BF0C3724
:10314000BD465DF8047B704780B483B000AF786003
:103150007B689B6803F00103012B01D1012300E090
:10316000002318460C37BD465DF8047B704780B4D9
:1031700083B000AF78607B689B6803F00203022B8A
:1031800001D1012300E0002318460C37BD465DF84D
:10319000047B704780B483B000AF78607B689B6825
:1031A00003F00403042B01D1012300E0002318469F
:1031B0000C37BD465DF8047B704780B483B000AF28
:1031C00078607B689B6803F00803082B01D101231A
:1031D00000E0002318460C37BD465DF8047B7047BD
:1031E00090B589B000AF78600023FB770023BB6007
:1031F0007B68002B01D1012336E17B681B69002B22
:103200007B685B6D002B09D17868FFF7BDF97B689F
:1032100000229A657B68002283F850207B681B6837
:103220001846FFF741FF0346002B04D07B681B685C
:103230001846FFF727FF7B681B681846FFF75CFFFF
:103240000346002B15D17B681B681846FFF740FF2B
:10325000874B1B689B09874AA2FB03239B09013309
:103260005B00BB6002E0BB68013BBB60BB68002B3E
:10327000F9D17B681B681846FFF73EFF0346002B19
:103280000DD17B685B6D43F010027B685A657B68EB
:103290009B6D43F001027B689A650123FB777B6895
:1032A0001B681846FFF776FF78617B685B6D03F05B
:1032B0001003002B40F0CF807B69002B40F0CB80C7
:1032C0007B685B6D23F4817343F002027B685A656F
:1032D0007B681B681846FFF737FF0346002B15D1A4
:1032E0006548FFF731FF04466448FFF72DFF0346AA
:1032F0001C436348FFF728FF03462343002B05D1F7
:103300007B685B6819465F48FFF7B8FD7B685B7EAA
:103310005A037B685B6B1A437B68DB681A437B68E4
:103320009B681A437B6893F820301B041343BB61EE
:103330007B6893F82030012B06D17B685B6A013BE8
:103340005B04BA691343BB617B689B6A002B09D09D
:103350007B689B6A03F470727B68DB6A1343BA690B
:103360001343BB617B681B68DA68474B13407A687C
:103370001268B9690B43D3607B681B681846FFF776
:1033800009FF38617B681B681846FFF716FFF86075
:103390003B69002B3DD1FB68002B3AD17B681B7E3B
:1033A0009A037B6893F830305B001343BB617B6802
:1033B0001B68DB6823F4804323F002037A681268F9
:1033C000B9690B43D3607B6893F83830012B18D16F
:1033D0007B681B681B6923F4FF6323F004037A688E
:1033E000D16B7A68126C11437A68526C11437A6817
:1033F000926C0A431A437B681B6842F001021A610F
:1034000007E07B681B681A697B681B6822F0010271
:103410001A617B681B69012B0CD17B681B681B6BD5
:1034200023F00F017B68DB695A1E7B681B680A4327
:103430001A6307E07B681B681A6B7B681B6822F0C5
:103440000F021A637B685B6D23F0030343F00102F4
:103450007B685A6507E07B685B6D43F010027B6810
:103460005A650123FB77FB7F18462437BD4690BD84
:103470000C000020632D3E050000045000010450A4
:10348000000204500003045007C0F0FF80B5B6B03E
:1034900000AF78603960002387F8D7300023FB60E5
:1034A0007B6893F85030012B01D10223C7E37B687E
:1034B000012283F850207B681B681846FFF76AFEDC
:1034C0000346002B40F0A8833B685B68052B24D89B
:1034D0003B685B68023B032B1BD801A252F823F028
:1034E000F1340008F93400080135000809350008F6
:1034F0003B680C225A6011E03B6812225A600DE0D2
:103500003B6818225A6009E03B684FF480725A60A9
:1035100004E03B6806225A6000E000BF7B68186840
:103520003B6859683B681B681A46FFF730FD7B68AB
:103530001B681846FFF72EFEC7F8D0007B681B6893
:103540001846FFF73AFEC7F8CC00D7F8D030002B6A
:1035500040F0A681D7F8CC30002B40F0A1817B68E9
:1035600018683B6819683B689B681A46FFF73BFD83
:103570003B685A697B681B68DB68DB0803F0030360
:103580005B0002FA03F3C7F8C8303B681B69042BE1
:103590000AD07B6818683B6819693B681A68D7F8D5
:1035A000C830FFF79FFC7BE17B681B680021184651
:1035B000FFF7BCFC0346C3F31203002B0AD17B6860
:1035C0001B6800211846FFF7B1FC03469B0E03F071
:1035D0001F021EE07B681B6800211846FFF7A6FC4F
:1035E0000346C7F8BC30D7F8BC3093FAA3F3C7F84A
:1035F000B830D7F8B830C7F8C030D7F8C030002B93
:1036000001D1202304E0D7F8C030B3FA83F3DBB252
:103610001A463B681B68C3F31203002B05D13B68B5
:103620001B689B0E03F01F0318E03B681B68C7F87C
:10363000B030D7F8B03093FAA3F3C7F8AC30D7F86E
:10364000AC30C7F8B430D7F8B430002B01D1202308
:1036500004E0D7F8B430B3FA83F3DBB29A4206D170
:103660007B681B68002200211846FFF775FC7B6809
:103670001B6801211846FFF759FC0346C3F31203E8
:10368000002B0AD17B681B6801211846FFF74EFC0E
:1036900003469B0E03F01F021EE07B681B6801219E
:1036A0001846FFF743FC0346C7F8A430D7F8A43008
:1036B00093FAA3F3C7F8A030D7F8A030C7F8A83022
:1036C000D7F8A830002B01D1202304E0D7F8A83088
:1036D000B3FA83F3DBB21A463B681B68C3F31203E9
:1036E000002B05D13B681B689B0E03F01F0318E0FD
:1036F0003B681B68C7F89830D7F8983093FAA3F363
:10370000C7F89430D7F89430C7F89C30D7F89C307D
:10371000002B01D1202304E0D7F89C30B3FA83F3C7
:10372000DBB29A4206D17B681B6800220121184651
:10373000FFF712FC7B681B6802211846FFF7F6FBB7
:103740000346C3F31203002B0AD17B681B680221D6
:103750001846FFF7EBFB03469B0E03F01F021EE02B
:103760007B681B6802211846FFF7E0FB0346C7F899
:103770008C30D7F88C3093FAA3F3C7F88830D7F899
:103780008830C7F89030D7F89030002B01D1202333
:1037900004E0D7F89030B3FA83F3DBB21A463B6803
:1037A0001B68C3F31203002B05D13B681B689B0EFB
:1037B00003F01F0316E03B681B68C7F88030D7F89A
:1037C000803093FAA3F3FB67FB6FC7F88430D7F818
:1037D0008430002B01D1202304E0D7F88430B3FAE1
:1037E00083F3DBB29A4206D17B681B680022022178
:1037F0001846FFF7B1FB7B681B6803211846FFF7EB
:1038000095FB0346C3F31203002B0AD17B681B68A8
:1038100003211846FFF78AFB03469B0E03F01F02A5
:1038200017E07B681B6803211846FFF77FFB034600
:103830007B677B6F93FAA3F33B673B6FBB67BB6F01
:10384000002B01D1202303E0BB6FB3FA83F3DBB27B
:103850001A463B681B68C3F31203002B05D13B6873
:103860001B689B0E03F01F0311E03B681B68BB66DF
:10387000BB6E93FAA3F37B667B6EFB66FB6E002B3D
:1038800001D1202303E0FB6EB3FA83F3DBB29A424B
:1038900006D17B681B68002203211846FFF75CFBFA
:1038A0007B681B681846FFF74FFC0346002B40F06F
:1038B0003F817B6818683B6819683B68DB681A467B
:1038C000FFF7BCFB3B68DB688E4A934240F03081D7
:1038D0007B6818683B681B68C3F31203002B0BD18D
:1038E0003B681B689B0E013303F01F03092B94BF39
:1038F00001230023DBB219E03B681B68FB65FB6D0D
:1039000093FAA3F3BB65BB6D3B663B6E002B01D105
:10391000202303E03B6EB3FA83F3DBB2013303F001
:103920001F03092B94BF01230023DBB2002B79D0A6
:103930003B681B68C3F31203002B07D13B681B686D
:103940009B0E01339B0603F0F84215E03B681B68B1
:103950003B653B6D93FAA3F3FB64FB6C7B657B6D6E
:10396000002B01D1202303E07B6DB3FA83F3DBB29C
:1039700001339B0603F0F8423B681B68C3F3120354
:10398000002B09D13B681B689B0E013303F01F031A
:10399000012101FA03F317E03B681B687B647B6C31
:1039A00093FAA3F33B643B6CBB64BB6C002B01D16B
:1039B000202303E0BB6CB3FA83F3DBB2013303F0E3
:1039C0001F03012101FA03F342EA03013B681B686C
:1039D000C3F31203002B0AD13B681B689B0E013313
:1039E00003F01F0213465B0013441B0518E03B68FD
:1039F0001B68BB63BB6B93FAA3F37B637B6BFB63BB
:103A0000FB6B002B01D1202303E0FB6BB3FA83F3A4
:103A1000DBB2013303F01F0213465B0013441B05A6
:103A20000B4380E03B681B68C3F31203002B07D1F4
:103A30003B681B689B0E01339B0603F0F84215E0C0
:103A40003B681B68FB62FB6A93FAA3F3BB62BB6A29
:103A50003B633B6B002B01D1202303E03B6BB3FAAC
:103A600083F3DBB201339B0603F0F8423B681B682B
:103A7000C3F31203002B09D13B681B689B0E013373
:103A800003F01F03012101FA03F317E03B681B68F1
:103A90003B623B6A93FAA3F3FB61FB697B627B6A3F
:103AA000002B01D1202303E07B6AB3FA83F3DBB25E
:103AB000013303F01F03012101FA03F342EA03017A
:103AC0003B681B68C3F31203002B0DD13B681B68D6
:103AD0009B0E013303F01F0213465B0013441E3B91
:103AE0001B0543F000731DE03B681B687B617B692D
:103AF00093FAA3F33B613B69BB61BB69002B03D124
:103B0000202305E000007F40BB69B3FA83F3DBB2FA
:103B1000013303F01F0213465B0013441E3B1B05D9
:103B200043F000730B433A6892681946FFF75BFA5B
:103B30003B681A68444B1340002B7AD04348FFF788
:103B4000C3F9C7F8C4003B681B68414A93422CD1B3
:103B5000D7F8C43003F40003002B26D17B681B6820
:103B60003C4A934204D07B681B683B4A93425DD138
:103B7000D7F8C43043F4000319463448FFF791F9ED
:103B8000364B1B689B09364AA2FB03239B095A1C30
:103B900013465B0013449B00FB6002E0FB68013BA3
:103BA000FB60FB68002BF9D140E03B681B682D4AA5
:103BB000934218D1D7F8C43003F08073002B12D190
:103BC0007B681B68234A934204D07B681B68224AA7
:103BD00093422DD1D7F8C43043F0807319461B4867
:103BE000FFF75FF924E03B681B681F4A934220D12E
:103BF000D7F8C43003F48003002B1AD17B681B680C
:103C0000144A934215D1D7F8C43043F480031946BF
:103C10000E48FFF746F90CE07B685B6D43F020022D
:103C20007B685A65012387F8D73002E000BF00E0C7
:103C300000BF7B68002283F8502097F8D7301846E1
:103C4000D837BD4680BD00BF000008800003045087
:103C5000000052C700000450000204500C00002075
:103C6000632D3E05000084CB0100008080B584B048
:103C700000AF78607B681B681846FFF778FAF86039
:103C80007B681B681846FFF75FFA0346002B47D096
:103C9000FB68002B44D17B681B689B6803F00D0315
:103CA000012B0CD17B681B681846FFF739FA7B683B
:103CB0001B6803221A60FFF7B1F8B86029E07B683F
:103CC0005B6D43F010027B685A657B689B6D43F027
:103CD00001027B689A65012323E0FFF79FF8024603
:103CE000BB68D31A022B14D97B681B689B6803F04E
:103CF0000103002B0DD07B685B6D43F010027B68E5
:103D00005A657B689B6D43F001027B689A650123CD
:103D100007E07B681B689B6803F00103002BDCD184
:103D2000002318461037BD4680BD80B483B000AF75
:103D300078607B689B6803F00103012B01D10123AC
:103D400000E0002318460C37BD465DF8047B704741
:103D500080B483B000AF786039607B689B6823F0E3
:103D6000404323F03F033A6802F08042134343F09C
:103D700000427B689A6000BF0C37BD465DF8047B4B
:103D8000704780B483B000AF78607B689B6803F0B5
:103D90000043B3F1004F01D1012300E00023184696
:103DA0000C37BD465DF8047B704780B483B000AF2C
:103DB00078607B689B6803F00403042B01D1012326
:103DC00000E0002318460C37BD465DF8047B7047C1
:103DD00080B584B000AF786039600023BB607B6839
:103DE00093F85030012B01D102234DE07B68012272
:103DF00083F850207868FFF739FF0346FB73FB7B9D
:103E0000002B36D17B685B6D23F4885323F00203CB
:103E100043F002027B685A657B681B683968184664
:103E2000FFF796FF14E0BB680133BB60BB68B3F5D6
:103E3000912F0DD37B685B6D23F0120343F01002CA
:103E40007B685A657B68002283F8502001231BE0C1
:103E50007B681B681846FFF794FF0346002BE2D1EE
:103E60007B685B6D23F0030343F001027B685A65B6
:103E700005E07B685B6D43F010027B685A657B68E8
:103E8000002283F85020FB7B18461037BD4680BDCA
:103E900090B59FB000AF78603960002387F8773025
:103EA0007B6893F85030012B01D1022393E07B68AB
:103EB000012283F850200023FB6500233B667B68CA
:103EC0001B68474A934202D1464BBB6001E0002386
:103ED000BB60BB68002B0BD17B685B6D43F020029D
:103EE0007B685A657B68002283F85020012372E0CA
:103EF000BB681846FFF759FF38677B681B68184690
:103F0000FFF753FF0346002B54D13B6F002B51D1D9
:103F1000354BFB663B681B68002B2CD0FB6E9B6807
:103F200023F460423B6859687B6893F830305B0348
:103F30000B431A43FB6E9A602948FFF7F6FE0446CE
:103F40002848FFF7F2FE03461C432848FFF7EDFE22
:103F500003462343002B37D1FB6E9B6823F4716328
:103F600023F00F033A6811683A6892680A431A43CB
:103F7000FB6E9A6028E0FB6E9B6823F46042FB6E48
:103F80009A601748FFF7D1FE04461648FFF7CDFEAA
:103F900003461C431548FFF7C8FE03462343002B86
:103FA00012D1FB6E9B6823F4716323F00F03FA6E4A
:103FB000936009E07B685B6D43F020027B685A6583
:103FC000012387F8773000E000BF7B68002283F888
:103FD000502097F8773018467C37BD4690BD00BF1B
:103FE000000004500001045000030450000204507B
:103FF00080B485B000AF78607B6803F00703FB6096
:104000000C4BDB68BB60BA684FF6FF031340BB6024
:10401000FB681A02BB68134343F0BF6343F40033E9
:10402000BB60044ABB68D36000BF1437BD465DF86F
:10403000047B704700ED00E080B400AF044BDB6808
:104040001B0A03F007031846BD465DF8047B704762
:1040500000ED00E080B483B000AF0346FB7197F938
:104060000730002B0BDBFB7903F01F02074997F9A0
:1040700007305B09012000FA02F241F8232000BF5B
:104080000C37BD465DF8047B704700BF00E100E0DF
:1040900080B483B000AF03463960FB7197F90730F5
:1040A000002B0ADB3B68DAB20C4997F907301201A2
:1040B000D2B20B4483F800230AE03B68DAB2084925
:1040C000FB7903F00F03043B1201D2B20B441A76C2
:1040D00000BF0C37BD465DF8047B704700E100E08F
:1040E00000ED00E080B489B000AFF860B9607A609C
:1040F000FB6803F00703FB61FB69C3F10703042BB3
:1041000028BF0423BB61FB690433062B02D9FB697A
:10411000033B00E000237B614FF0FF32BB6902FAF2
:1041200003F3DA43BB681A407B699A404FF0FF31D2
:104130007B6901FA03F3D9437B680B4013431846AC
:104140002437BD465DF8047B7047000080B582B01F
:1041500000AF78607B68013BB3F1807F01D301231E
:104160000FE00A4A7B68013B53600F214FF0FF309C
:10417000FFF78EFF054B00229A60044B07221A605E
:10418000002318460837BD4680BD00BF10E000E0A0
:1041900080B582B000AF78607868FFF729FF00BF74
:1041A0000837BD4680BD80B586B000AF0346B96014
:1041B0007A60FB7300237B61FFF73EFF78617A68CA
:1041C000B9687869FFF78EFF024697F90F301146FC
:1041D0001846FFF75DFF00BF1837BD4680BD80B5AC
:1041E00082B000AF0346FB7197F907301846FFF71E
:1041F00031FF00BF0837BD4680BD80B582B000AF3B
:1042000078607868FFF7A2FF034618460837BD4676
:1042100080BD000080B485B000AF78607B68002B63
:1042200001D1012398E07B681B681A464D4B9A42E6
:104230000FD87B681B681A464B4B13444B4AA2FBB2
:1042400003231B099A007B685A647B68484A1A64F6
:104250000EE07B681B681A46464B1344434AA2FB98
:1042600003231B099A007B685A647B68424A1A64DC
:104270007B68022283F825207B681B681B68FB6033
:10428000FB6823F4FF4323F07003FB607B689A68AC
:104290007B68DB681A437B681B691A437B685B6930
:1042A0001A437B689B691A437B68DB691A437B6806
:1042B0001B6A1343FA681343FB607B681B68FA6848
:1042C0001A607B689B68B3F5804F39D07B681B6CA4
:1042D000274A93421AD1294B1A687B685B6C03F01A
:1042E0001C030F2101FA03F3DB43244913400B6045
:1042F000224B1A687B6859687B685B6C03F01C036F
:1043000001FA03F31D4913430B6019E01C4B1A68B3
:104310007B685B6C03F01C030F2101FA03F3DB43A2
:10432000174913400B60164B1A687B6859687B6805
:104330005B6C03F01C0301FA03F3114913430B6098
:104340007B680022DA637B68012283F825207B6882
:10435000002283F82420002318461437BD465DF858
:10436000047B704707040240F8FFFDBFCDCCCCCCE6
:1043700000000240F8FBFDBF00040240A80002401C
:10438000A804024080B586B000AFF860B9607A60DA
:104390003B600023FB75FB6893F82430012B01D1AF
:1043A00002234BE0FB68012283F82420FB6893F88A
:1043B0002530DBB2012B3AD1FB68022283F825209D
:1043C000FB680022DA63FB681B681A68FB681B68DD
:1043D00022F001021A603B687A68B968F86800F058
:1043E00021F9FB681B6B002B08D0FB681B681A685F
:1043F000FB681B6842F00E021A600FE0FB681B6846
:104400001A68FB681B6822F004021A60FB681B68CC
:104410001A68FB681B6842F00A021A60FB681B6896
:104420001A68FB681B6842F001021A6005E0FB682D
:10443000002283F824200223FB75FB7D18461837E1
:10444000BD4680BD80B584B000AF78600023FB73AB
:104450007B6893F82530DBB2022B05D07B68042201
:10446000DA630123FB7329E07B681B681A687B68A9
:104470001B6822F00E021A607B681B681A687B6852
:104480001B6822F001021A607B685B6C03F01C025F
:104490007B681B6C012101FA02F25A607B680122E1
:1044A00083F825207B68002283F824207B689B6B9F
:1044B000002B03D07B689B6B78689847FB7B184682
:1044C0001037BD4680BD80B584B000AF78607B6892
:1044D0001B6C1B68FB607B681B681B68BB607B6890
:1044E0005B6C03F01C0304229A40FB681340002B12
:1044F00026D0BB6803F00403002B21D07B681B6827
:104500001B6803F02003002B07D17B681B681A6827
:104510007B681B6822F004021A607B685B6C03F006
:104520001C027B681B6C042101FA02F25A607B6852
:104530001B6B002B71D07B681B6B786898476CE015
:104540007B685B6C03F01C0302229A40FB681340FB
:10455000002B2ED0BB6803F00203002B29D07B6810
:104560001B681B6803F02003002B0BD17B681B68C2
:104570001A687B681B6822F00A021A607B680122B5
:1045800083F825207B685B6C03F01C027B681B6C46
:10459000022101FA02F25A607B68002283F824208B
:1045A0007B68DB6A002B38D07B68DB6A78689847C9
:1045B00033E07B685B6C03F01C0308229A40FB68C5
:1045C0001340002B2AD0BB6803F00803002B25D032
:1045D0007B681B681A687B681B6822F00E021A60F1
:1045E0007B685B6C03F01C027B681B6C012101FA89
:1045F00002F25A607B680122DA637B68012283F849
:1046000025207B68002283F824207B685B6B002BCD
:1046100004D07B685B6B7868984700BF00BF103799
:10462000BD4680BD80B485B000AFF860B9607A60E7
:104630003B60FB685B6C03F01C02FB681B6C012198
:1046400001FA02F25A60FB681B683A685A60FB681C
:104650009B68102B08D1FB681B687A689A60FB681E
:104660001B68BA68DA6007E0FB681B68BA689A6082
:10467000FB681B687A68DA6000BF1437BD465DF8D6
:10468000047B704780B487B000AF78603960002346
:104690007B617FE13B681A6801217B6901FA03F3C2
:1046A0001340FB60FB68002B00F071813B685B6886
:1046B00003F00303012B05D03B685B6803F00303A1
:1046C000022B30D17B689B683B617B695B000322D6
:1046D00002FA03F3DB433A6913403B613B68DA6853
:1046E0007B695B0002FA03F33A6913433B617B6821
:1046F0003A699A607B685B683B6101227B6902FAD8
:1047000003F3DB433A6913403B613B685B681B0979
:1047100003F001027B6902FA03F33A6913433B6138
:104720007B683A695A603B685B6803F00303032BBC
:1047300018D17B68DB6A3B6101227B6902FA03F3D3
:10474000DB433A6913403B613B685B68DB0803F07D
:1047500001027B6902FA03F33A6913433B617B6808
:104760003A69DA623B685B6803F00303032B17D0F6
:104770007B68DB683B617B695B00032202FA03F321
:10478000DB433A6913403B613B689A687B695B0095
:1047900002FA03F33A6913433B617B683A69DA60D2
:1047A0003B685B6803F00303022B23D17B69DA08C3
:1047B0007B68083253F822303B617B6903F00703C2
:1047C0009B000F2202FA03F3DB433A6913403B617B
:1047D0003B681A697B6903F007039B0002FA03F345
:1047E0003A6913433B617B69DA087B6808323969AF
:1047F00043F822107B681B683B617B695B000322E6
:1048000002FA03F3DB433A6913403B613B685B68A0
:1048100003F003027B695B0002FA03F33A69134376
:104820003B617B683A691A603B685B6803F440331C
:10483000002B00F0AC805F4B1B6E5E4A43F001031F
:1048400013665C4B1B6E03F00103BB60BB685A4AE6
:104850007B699B08023352F823303B617B6903F08C
:1048600003039B000F2202FA03F3DB433A69134070
:104870003B617B68B3F1904F25D07B684F4A9342F0
:104880001FD07B684E4A934219D07B684D4A9342B1
:1048900013D07B684C4A93420DD07B684B4A9342BD
:1048A00007D07B684A4A934201D106230CE00723D4
:1048B0000AE0052308E0042306E0032304E00223C2
:1048C00002E0012300E000237A6902F00302920073
:1048D00093403A6913433B6137497B699B08023334
:1048E0003A6941F823203B4B9B683B61FB68DB4303
:1048F0003A6913403B613B685B6803F48013002B0B
:1049000003D03A69FB6813433B61324A3B699360C9
:10491000304BDB683B61FB68DB433A6913403B612A
:104920003B685B6803F40013002B03D03A69FB6813
:1049300013433B61274A3B69D360264B5B683B616D
:10494000FB68DB433A6913403B613B685B6803F4F7
:104950000033002B03D03A69FB6813433B611D4AC7
:104960003B6953601B4B1B683B61FB68DB433A6947
:1049700013403B613B685B6803F48033002B03D03A
:104980003A69FB6813433B61124A3B6913607B69D8
:1049900001337B613B681A687B6922FA03F3002BC1
:1049A0007FF478AE00BF00BF1C37BD465DF8047BC6
:1049B000704700BF001002400000014000040048A2
:1049C00000080048000C004800100048001400488F
:1049D000001800480004014080B485B000AF786042
:1049E0000B467B807B681A697B881340002B02D0C2
:1049F0000123FB7301E00023FB73FB7B1846143794
:104A0000BD465DF8047B704780B483B000AF78602A
:104A10000B467B8013467B707B78002B03D07A8813
:104A20007B689A6102E07A887B689A6200BF0C37E3
:104A3000BD465DF8047B704780B582B000AF034689
:104A4000FB80084B5A69FB881340002B06D0054AAF
:104A5000FB885361FB881846FCF728FA00BF08372B
:104A6000BD4680BD0004014080B582B000AF7860D3
:104A70007B68002B01D1012381E07B6893F84130F2
:104A8000DBB2002B06D17B68002283F840207868D7
:104A9000FDF712FE7B68242283F841207B681B68A7
:104AA0001A687B681B6822F001021A607B685A68EA
:104AB0007B681B6822F070621A617B681B689A68C9
:104AC0007B681B6822F400429A607B68DB68012BDC
:104AD00007D17B689A687B681B6842F400429A6041
:104AE00006E07B689A687B681B6842F404429A601F
:104AF0007B68DB68022B04D17B681B684FF4006283
:104B00005A607B681B685B687A68126843F00073C0
:104B100043F4004353607B681B68DA687B681B685A
:104B200022F40042DA607B681A697B685B6942EABA
:104B300003017B689B691A027B681B680A43DA6081
:104B40007B68D9697B681A6A7B681B680A431A60AC
:104B50007B681B681A687B681B6842F001021A6058
:104B60007B6800225A647B68202283F841207B689E
:104B700000221A637B68002283F842200023184633
:104B80000837BD4680BD000080B588B002AFF86030
:104B90007A601A460B467B8113463B81FB6893F88B
:104BA0004130DBB2202B40F0DA80FB6893F84030D4
:104BB000012B01D10223D3E0FB68012283F84020BE
:104BC000FEF72CF978617B690093192301224FF4D9
:104BD0000041F86800F000FA0346002B01D00123E1
:104BE000BEE0FB68212283F84120FB68102283F895
:104BF0004220FB6800225A64FB687A685A62FB68AC
:104C00003A895A85FB6800225A63FB685B8D9BB228
:104C1000FF2B0ED9FB68FF221A85FB681B8DDAB2C9
:104C20007989514B00934FF08073F86800F0F6FBE0
:104C30006CE0FB685B8D9AB2FB681A85FB681B8D84
:104C4000DAB27989484B00934FF00073F86800F0AE
:104C5000E5FB5BE07A69396AF86800F0FDF9034624
:104C6000002B01D001237BE0FB685B6A1A78FB68AC
:104C70001B689A62FB685B6A5A1CFB685A62FB6895
:104C80005B8D9BB2013B9AB2FB685A85FB681B8D1A
:104C9000013B9AB2FB681A85FB685B8D9BB2002BC7
:104CA00034D0FB681B8D002B30D17B6900933B6AAD
:104CB00000228021F86800F08FF90346002B01D014
:104CC00001234DE0FB685B8D9BB2FF2B0ED9FB6887
:104CD000FF221A85FB681B8DDAB2798900230093C5
:104CE0004FF08073F86800F099FB0FE0FB685B8D74
:104CF0009AB2FB681A85FB681B8DDAB279890023AA
:104D000000934FF00073F86800F088FBFB685B8D40
:104D10009BB2002B9ED17A69396AF86800F0DCF901
:104D20000346002B01D001231AE0FB681B682022F8
:104D3000DA61FB681B685968FB681A680B4B0B400B
:104D40005360FB68202283F84120FB68002283F82F
:104D50004220FB68002283F84020002300E0022369
:104D600018461837BD4680BD0020008000E800FED0
:104D700080B588B002AFF8607A601A460B467B8136
:104D800013463B81FB6893F84130DBB2202B40F0A7
:104D9000DB80FB6893F84030012B01D10223D4E083
:104DA000FB68012283F84020FEF738F878617B69C0
:104DB0000093192301224FF40041F86800F00CF928
:104DC0000346002B01D00123BFE0FB68222283F8B9
:104DD0004120FB68102283F84220FB6800225A64BD
:104DE000FB687A685A62FB683A895A85FB68002238
:104DF0005A63FB685B8D9BB2FF2B0ED9FB68FF22C9
:104E00001A85FB681B8DDAB27989524B00934FF0FB
:104E10008073F86800F002FB6DE0FB685B8D9AB26E
:104E2000FB681A85FB681B8DDAB27989494B0093C0
:104E30004FF00073F86800F0F1FA5CE07A69396AC3
:104E4000F86800F085F90346002B01D001237CE0CF
:104E5000FB681B685A6AFB685B6AD2B21A70FB680F
:104E60005B6A5A1CFB685A62FB681B8D013B9AB255
:104E7000FB681A85FB685B8D9BB2013B9AB2FB68AD
:104E80005A85FB685B8D9BB2002B34D0FB681B8D71
:104E9000002B30D17B6900933B6A00228021F868A7
:104EA00000F09AF80346002B01D001234DE0FB6887
:104EB0005B8D9BB2FF2B0ED9FB68FF221A85FB6826
:104EC0001B8DDAB27989002300934FF08073F86864
:104ED00000F0A4FA0FE0FB685B8D9AB2FB681A85BC
:104EE000FB681B8DDAB27989002300934FF00073C1
:104EF000F86800F093FAFB685B8D9BB2002B9DD1A4
:104F00007A69396AF86800F0E7F80346002B01D0A7
:104F100001231AE0FB681B682022DA61FB681B682A
:104F20005968FB681A680C4B0B405360FB682022E1
:104F300083F84120FB68002283F84220FB680022AE
:104F400083F84020002300E0022318461837BD46AE
:104F500080BD00BF0024008000E800FE80B483B064
:104F600000AF78607B6893F84130DBB218460C37AD
:104F7000BD465DF8047B704780B483B000AF7860B5
:104F80007B685B6C18460C37BD465DF8047B704748
:104F900080B483B000AF78607B681B689B6903F0C6
:104FA0000203022B03D17B681B6800229A627B6894
:104FB0001B689B6903F00103012B07D07B681B680A
:104FC0009A697B681B6842F001029A6100BF0C3746
:104FD000BD465DF8047B704780B584B000AFF860D3
:104FE000B9603B601346FB7122E03B68B3F1FF3FC1
:104FF0001ED0FDF713FF0246BB69D31A3A689A42E6
:1050000002D33B68002B13D1FB685B6C43F020029A
:10501000FB685A64FB68202283F84120FB68002269
:1050200083F84220FB68002283F8402001230FE030
:10503000FB681B689A69BB681340BA689A420CBF48
:1050400001230023DBB21A46FB799A42CDD000231C
:1050500018461037BD4680BD80B584B000AFF860FB
:10506000B9607A602CE07A68B968F86800F0EAF80C
:105070000346002B01D001232AE0BB68B3F1FF3FB8
:105080001ED0FDF7CBFE02467B68D31ABA689A425F
:1050900002D3BB68002B13D1FB685B6C43F020028A
:1050A000FB685A64FB68202283F84120FB680022D9
:1050B00083F84220FB68002283F84020012307E0A8
:1050C000FB681B689B6903F00203022BCBD1002312
:1050D00018461037BD4680BD80B584B000AFF8607B
:1050E000B9607A6028E07A68B968F86800F0AAF8D0
:1050F0000346002B01D0012326E0FDF78FFE024678
:105100007B68D31ABA689A4202D3BB68002B13D1CA
:10511000FB685B6C43F02002FB685A64FB6820224A
:1051200083F84120FB68002283F84220FB680022BC
:1051300083F84020012307E0FB681B689B6903F0AC
:105140002003202BCFD1002318461037BD4680BD49
:1051500080B584B000AFF860B9607A6064E07A68C6
:10516000B968F86800F06EF80346002B01D00123FF
:1051700062E0FB681B689B6903F02003202B38D199
:10518000FB681B689B6903F00403042B05D1FB68D3
:105190001B8D002B01D000234EE0FB681B689B6930
:1051A00003F01003102B07D1FB681B681022DA6193
:1051B000FB6804225A6402E0FB6800225A64FB6820
:1051C0001B682022DA61FB681B685968FB681A6853
:1051D0001B4B0B405360FB68202283F84120FB6887
:1051E000002283F84220FB68002283F8402001233C
:1051F00022E0FDF713FE02467B68D31ABA689A4292
:1052000002D3BB68002B0FD1FB685B6C43F020021C
:10521000FB685A64FB68202283F84120FB68002267
:1052200083F84020012307E0FB681B689B6903F0BB
:105230000403042B93D1002318461037BD4680BDCC
:1052400000E800FE80B58AB000AFF860B9607A600F
:10525000002387F82730FB681B689B69BB6100232C
:105260003B627B68FB61BB6903F01003002B75D0C8
:10527000FB681B681022DA6156E0BB68B3F1FF3FA0
:1052800052D0FDF7CBFD0246FB69D31ABA689A42A9
:1052900002D3BB68002B47D1FB681B685B6803F433
:1052A00080437B61FB6893F84230FB74FB681B68AA
:1052B0009B6903F40043B3F5004F2ED17B69B3F52E
:1052C000804F2AD0FB7C202B27D0FB681B685A68B4
:1052D000FB681B6842F480425A60FDF79FFDF8614D
:1052E0001BE0FDF79BFD0246FB69D31A192B14D96D
:1052F000FB685B6C43F02002FB685A64FB68202269
:1053000083F84120FB68002283F84220FB680022DA
:1053100083F84020012387F82730FB681B689B69CE
:1053200003F02003202BDCD1FB681B689B6903F092
:105330002003202B03D097F82730002B9DD097F81F
:105340002730002B03D1FB681B682022DA613B6AFF
:1053500043F004033B62012387F82730FB681B6896
:105360009B69BB61BB6903F48073002B0BD03B6A64
:1053700043F001033B62FB681B684FF48072DA6103
:10538000012387F82730BB6903F48063002B0BD01F
:105390003B6A43F008033B62FB681B684FF4806282
:1053A000DA61012387F82730BB6903F40073002B0F
:1053B0000BD03B6A43F002033B62FB681B684FF46F
:1053C0000072DA61012387F8273097F82730002B25
:1053D0001CD0F868FFF7DCFDFB681B685968FB68A8
:1053E0001A680D4B0B405360FB685A6C3B6A1A43BA
:1053F000FB685A64FB68202283F84120FB68002286
:1054000083F84220FB68002283F8402097F8273079
:1054100018462837BD4680BD00E800FE80B487B03E
:1054200000AFF8607B600B467B8113467B727B8903
:10543000C3F309027B7A1B0403F47F031A437B68DE
:105440001A433B6A134323F000437B61FB681B68EC
:105450005A683B6A5B0D03F48061084B0B43DB43E6
:1054600002EA0301FB681B687A690A435A6000BFBD
:105470001C37BD465DF8047B704700BFFF63FF0328
:1054800080B483B000AF786039607B6893F84130B6
:10549000DBB2202B38D17B6893F84030012B01D14F
:1054A000022332E07B68012283F840207B682422BB
:1054B00083F841207B681B681A687B681B6822F0B0
:1054C00001021A607B681B681A687B681B6822F4FB
:1054D00080521A607B681B6819687B681B683A6891
:1054E0000A431A607B681B681A687B681B6842F075
:1054F00001021A607B68202283F841207B68002229
:1055000083F84020002300E0022318460C37BD46F4
:105510005DF8047B704780B485B000AF7860396077
:105520007B6893F84130DBB2202B39D17B6893F84C
:105530004030012B01D1022333E07B68012283F844
:1055400040207B68242283F841207B681B681A680E
:105550007B681B6822F001021A607B681B681B686D
:10556000FB60FB6823F47063FB603B681B02FA6816
:105570001343FB607B681B68FA681A607B681B68D2
:105580001A687B681B6842F001021A607B6820225F
:1055900083F841207B68002283F84020002300E04C
:1055A000022318461437BD465DF8047B704700009F
:1055B00080B400AF044B1B6803F4C0631846BD46BB
:1055C0005DF8047B704700BF0070004080B485B078
:1055D00000AF78607B68B3F5007F30D1234B1B6848
:1055E00003F4C063B3F5007F38D0204B1B6823F46D
:1055F000C0631E4A43F4007313601D4B1B683222C4
:1056000002FB03F31B4AA2FB03239B0C0133FB6049
:1056100002E0FB68013BFB60144B5B6903F48063B1
:10562000B3F5806F02D1FB68002BF2D10F4B5B69A1
:1056300003F48063B3F5806F10D103230FE00B4BAD
:105640001B6803F4C063B3F5806F07D0074B1B687A
:1056500023F4C063054A43F48063136000231846B3
:105660001437BD465DF8047B704700BF00700040F2
:105670000C00002083DE1B4380B588B000AF78604B
:105680007B68002B01D10123CAE3974B9B6803F091
:105690000C03BB61944BDB6803F003037B617B6805
:1056A0001B6803F01003002B00F0E480BB69002BA3
:1056B00007D0BB690C2B40F08B807B69012B40F03D
:1056C0008780894B1B6803F00203002B05D07B68A1
:1056D0009B69002B01D10123A2E37B681A6A824BEC
:1056E0001B6803F00803002B04D07F4B1B6803F0FA
:1056F000F00305E07C4BD3F894301B0903F0F00372
:10570000934223D27B681B6A184600F055FD03467E
:10571000002B01D0012383E3734B1B68724A43F0D3
:1057200008031360704B1B6823F0F0027B681B6A50
:105730006D4913430B606C4B5B6823F47F427B68BD
:10574000DB691B02684913434B6025E0664B1B680D
:10575000654A43F008031360634B1B6823F0F002B3
:105760007B681B6A604913430B605F4B5B6823F4E3
:105770007F427B68DB691B025B4913434B60BB695B
:10578000002B09D17B681B6A184600F015FD034603
:10579000002B01D0012343E300F04AFC0246524BA8
:1057A0009B681B0903F00F035049CB5C03F01F03F8
:1057B00022FA03F34E4A13604E4B1B681846FDF75E
:1057C000DDFA0346FB73FB7B002B52D0FB7B27E308
:1057D0007B689B69002B32D0434B1B68424A43F0E5
:1057E00001031360FDF71AFB386108E0FDF716FBB3
:1057F00002463B69D31A022B01D9032310E33A4B2B
:105800001B6803F00203002BF0D0374B1B68364AAD
:1058100043F008031360344B1B6823F0F0027B68ED
:105820001B6A314913430B602F4B5B6823F47F42A3
:105830007B68DB691B022C4913434B601AE02A4B3F
:105840001B68294A23F001031360FDF7E7FA38616A
:1058500008E0FDF7E3FA02463B69D31A022B01D9AF
:105860000323DDE2204B1B6803F00203002BF0D181
:1058700000E000BF7B681B6803F00103002B74D0BD
:10588000BB69082B05D0BB690C2B0ED17B69032BA0
:105890000BD1154B1B6803F40033002B64D07B68DD
:1058A0005B68002B60D10123BAE27B685B68B3F5CB
:1058B000803F06D10C4B1B680B4A43F480331360C6
:1058C00026E07B685B68B3F5A02F15D1064B1B68FB
:1058D000054A43F480231360034B1B68024A43F4D8
:1058E0008033136014E000BF0010024014BF0008B2
:1058F0000C00002010000020A04B1B689F4A23F4DE
:10590000803313609D4B1B689C4A23F480231360F3
:105910007B685B68002B13D0FDF780FA386108E0E4
:10592000FDF77CFA02463B69D31A642B01D90323A5
:1059300076E2924B1B6803F40033002BF0D014E0A6
:10594000FDF76CFA386108E0FDF768FA02463B693A
:10595000D31A642B01D9032362E2884B1B6803F43A
:105960000033002BF0D100E000BF7B681B6803F020
:105970000203002B60D0BB69042B05D0BB690C2B44
:1059800019D17B69022B16D17C4B1B6803F4806311
:10599000002B05D07B68DB68002B01D101233FE29F
:1059A000764B5B6823F0F8527B681B691B067349D2
:1059B00013434B6040E07B68DB68002B23D06F4BC8
:1059C0001B686E4A43F480731360FDF727FA386151
:1059D00008E0FDF723FA02463B69D31A022B01D9EE
:1059E00003231DE2654B1B6803F48063002BF0D09A
:1059F000624B5B6823F0F8527B681B691B065F49AA
:105A000013434B6018E05D4B1B685C4A23F48073C2
:105A10001360FDF703FA386108E0FDF7FFF902466D
:105A20003B69D31A022B01D90323F9E1534B1B68BD
:105A300003F48063002BF0D17B681B6803F008033C
:105A4000002B3CD07B685B69002B1CD04B4BD3F800
:105A500094304A4A43F00103C2F89430FDF7DEF96E
:105A6000386108E0FDF7DAF902463B69D31A022BE8
:105A700001D90323D4E1414BD3F8943003F002035E
:105A8000002BEFD01BE03D4BD3F894303B4A23F082
:105A90000103C2F89430FDF7C1F9386108E0FDF761
:105AA000BDF902463B69D31A022B01D90323B7E1A2
:105AB000324BD3F8943003F00203002BEFD17B6814
:105AC0001B6803F00403002B00F0A6800023FB7783
:105AD0002A4B9B6D03F08053002B0DD1274B9B6D00
